:060000000A128A11142906
:10000800F000030EF1000B1846200B191020710E9A
:100018008300F00E700E0900031383123D30810037
:100028000B11860120182328A018282820192D280C
:10003800A019322823088700061537280800240845
:10004800870086153A2808002508870006163D28E7
:100058000800260887008616402808002708870019
:100068000617432808000130A00608000330A00640
:1000780008000630A00608000C30A0060800A00101
:100088000800080003138312061C850A861C8503D2
:040098000B10080041
:100200008A010A140F3982073F3406345B344F34B5
:1002100066346D347D3407347F346F3477347C3406
:1002200039345E34793471340317831688018901B7
:1002300003138316003085000614861406118611F8
:1002400006128612061386138113151495140030B6
:100250008700003088005C21532163217021031343
:10026000831285018601870188013C214321A90170
:10027000A801AA017621352905080F39A100050E2C
:100280000F39A200080021080021A3002208002144
:10029000A40028080021A5002A080021A60029089A
:1002A0000021A700080003138316161496140313E5
:1002B000831206080B100800031383160F178F16FE
:1002C0000F160F14080003138316811281110115F4
:1002D00081100114031383123D3081000B110800BB
:1002E0008B178B150B108B160B1108000508AB0034
:1002F00064302B020318A80A0318AB0003187829EE
:100300000A302B020318AA0A0318AB00031880292D
:0E0310000130AB020318A90A031C080088295B
:04400E00C430FF3F7C
:00000001FF
